{
  "contractName": "Lottery",
  "abi": [
    {
      "inputs": [],
      "stateMutability": "nonpayable",
      "type": "constructor"
    },
    {
      "inputs": [],
      "name": "admin",
      "outputs": [
        {
          "internalType": "address",
          "name": "",
          "type": "address"
        }
      ],
      "stateMutability": "view",
      "type": "function"
    },
    {
      "inputs": [],
      "name": "enterLottery",
      "outputs": [],
      "stateMutability": "payable",
      "type": "function"
    }
  ],
  "bytecode": "0x608060405234801561001057600080fd5b5033600360006101000a81548173ffffffffffffffffffffffffffffffffffffffff021916908373ffffffffffffffffffffffffffffffffffffffff160217905550670de0b6b3a7640000600181905550620151804261007091906100b4565b6000819055506100e8565b6000819050919050565b7f4e487b7100000000000000000000000000000000000000000000000000000000600052601160045260246000fd5b60006100bf8261007b565b91506100ca8361007b565b92508282019050808211156100e2576100e1610085565b5b92915050565b6104cc806100f76000396000f3fe6080604052600436106100295760003560e01c8063c1af57851461002e578063f851a44014610038575b600080fd5b610036610063565b005b34801561004457600080fd5b5061004d610299565b60405161005a9190610300565b60405180910390f35b60015434146100a7576040517f08c379a000000000000000000000000000000000000000000000000000000000815260040161009e9061039e565b60405180910390fd5b60001515600460003373ffffffffffffffffffffffffffffffffffffffff1673ffffffffffffffffffffffffffffffffffffffff16815260200190815260200160002060009054906101000a900460ff1615151461013a576040517f08c379a00000000000000000000000000000000000000000000000000000000081526004016101319061040a565b60405180910390fd5b6001543373ffffffffffffffffffffffffffffffffffffffff163111610195576040517f08c379a000000000000000000000000000000000000000000000000000000000815260040161018c90610476565b60405180910390fd5b3373ffffffffffffffffffffffffffffffffffffffff166108fc349081150290604051600060405180830381858888f193505050501580156101db573d6000803e3d6000fd5b506001600460003373ffffffffffffffffffffffffffffffffffffffff1673ffffffffffffffffffffffffffffffffffffffff16815260200190815260200160002060006101000a81548160ff0219169083151502179055506002339080600181540180825580915050600190039060005260206000200160009091909190916101000a81548173ffffffffffffffffffffffffffffffffffffffff021916908373ffffffffffffffffffffffffffffffffffffffff160217905550565b600360009054906101000a900473ffffffffffffffffffffffffffffffffffffffff1681565b600073ffffffffffffffffffffffffffffffffffffffff82169050919050565b60006102ea826102bf565b9050919050565b6102fa816102df565b82525050565b600060208201905061031560008301846102f1565b92915050565b600082825260208201905092915050565b7f6861766520746f207061792074686520657861637420616d6f756e7420666f7260008201527f20746865207469636b6574000000000000000000000000000000000000000000602082015250565b6000610388602b8361031b565b91506103938261032c565b604082019050919050565b600060208201905081810360008301526103b78161037b565b9050919050565b7f63616e206f6e6c7920627579206f6e65207469636b6574000000000000000000600082015250565b60006103f460178361031b565b91506103ff826103be565b602082019050919050565b60006020820190508181036000830152610423816103e7565b9050919050565b7f62616c616e636520746f6f206c6f770000000000000000000000000000000000600082015250565b6000610460600f8361031b565b915061046b8261042a565b602082019050919050565b6000602082019050818103600083015261048f81610453565b905091905056fea264697066735822122030d36ba2fa6693d2a81916b27301d43627ef505a4ba946e4e4bf362c5a809b9864736f6c63430008110033",
  "immutableReferences": {},
  "source": "// SPDX-License-Identifier: UNLICENSED\npragma solidity ^0.8.0;\n\ncontract Lottery {\n    uint drawing;\n    uint ticketPrice;\n    address payable[] entrants;\n    address public admin;\n\n    mapping(address => bool) hasTicket;\n\n    constructor() {\n        admin = msg.sender;\n        ticketPrice = 1 ether;\n        drawing = block.timestamp + 1 days;\n    }\n    function enterLottery() external payable {\n        require(msg.value == ticketPrice, \"have to pay the exact amount for the ticket\");\n\n        // ensure entrants haven't already bought tickets\n        require(hasTicket[msg.sender] == false, \"can only buy one ticket\");\n\n        // ensure sender has enough money in their account\n        require(msg.sender.balance > ticketPrice, \"balance too low\");\n\n        // buy ticket\n        payable(msg.sender).transfer(msg.value);\n\n        // ensure player now has a ticket\n        hasTicket[msg.sender] = true;\n\n        // update list of entries\n        entrants.push(payable(msg.sender));\n    }\n\n    function randomNumber() private view returns(uint) {\n        // generate a random number for how the winner will be decided\n        return uint(keccak256(abi.encode(block.difficulty, block.timestamp, entrants, block.number)));\n    }\n\n    function decideWinner() internal onlyAdmin {\n        // ensure the time of the drawing is at or after the drawing close date of 1 week\n        require(block.timestamp >= drawing, \"lottery is still ongoing\");\n        \n        // decide winner \n        uint won = randomNumber() % entrants.length;\n\n        // transfer the prize to their address\n        entrants[won].transfer(address(this).balance);\n\n        // reset lottery\n        entrants = new address payable[](0);\n    }\n\n    // modifier to ensure only the owner of the smart-contract can decide the winner\n    // and transfer the prize to the winners address\n    modifier onlyAdmin() {\n        require(msg.sender == admin, \"only admin can call this function\");\n        _;\n    }\n}",
  "sourcePath": "c:\\Users\\jokel\\lottery\\contracts\\Lottery.sol",
  "compiler": {
    "name": "solc",
    "version": "0.8.17+commit.8df45f5f.Emscripten.clang"
  },
  "schemaVersion": "3.4.10",
  "updatedAt": "2023-01-19T08:24:31.058Z",
  "devdoc": {
    "kind": "dev",
    "methods": {},
    "version": 1
  },
  "userdoc": {
    "kind": "user",
    "methods": {},
    "version": 1
  }
}